:1000000000000120750300005D0300005F03000095
:1000100061030000630300006503000000000000AE
:100020000000000000000000000000006703000066
:1000300069030000000000006B0300006D03000076
:100040006F0300006F0300006F0300006F030000E8
:100050006F0300006F0300006F0300006F030000D8
:100060006F0300006F0300006F0300006F030000C8
:100070006F0300006F0300006F0300006F030000B8
:100080006F0300006F0300006F0300006F030000A8
:100090006F0300006F0300006F0300006F03000098
:1000A0006F0300006F0300006F0300006F03000088
:1000B0006F0300006F03000000000000000000005C
:1000C0006F0300006F0300006F0300006F03000068
:1000D0006F0300006F0300006F03000000000000CA
:1000E0000000000000000000000000000000000010
:1000F0000000000000000000000000000000000000
:1001000000000000000000000000000000000000EF
:1001100000000000000000000000000000000000DF
:1001200000000000000000000000000000000000CF
:1001300000000000000000000000000000000000BF
:1001400000000000000000000000000000000000AF
:10015000000000000000000000000000000000009F
:10016000000000000000000000000000000000008F
:10017000000000000000000000000000000000007F
:10018000000000000000000000000000000000006F
:10019000000000000000000000000000000000005F
:1001A000000000000000000000000000000000004F
:1001B000000000000000000000000000000000003F
:1001C000000000000000000000000000000000002F
:1001D000000000000000000000000000000000001F
:1001E000000000000000000000000000000000000F
:1001F00000000000000000000000000000000000FF
:10020000354936480A1A02D0072291438D463449AF
:1002100034480A1A06D00722914381F30988022242
:1002200082F3148830483149314A00F044F83148AB
:100230003149324A00F03FF831483249324A00F041
:100240003AF832483249334A00F035F832483349F7
:10025000334A00F030F833483349344A00F02BF881
:1002600033483449344A00F026F8344834490022EF
:1002700000F02CF833483449002200F027F83348C6
:100280003349091A082902DB002202604160314A21
:1002900090471F481F49884205D00268043003B4C4
:1002A000904703BCF7E700208646EC46002000217B
:1002B000294A9047FEE7884207D0521A05D00378B2
:1002C00001300B700131013AF9D17047884202D0F8
:1002D00002700130FAE770470000012000E00020C2
:1002E00000000120000001203C0800000000002068
:1002F00004000020D0030000D0030000D00700005D
:100300003C0800000000002000000020D007000092
:10031000D0070000D0070000D0070000D007000081
:10032000D0070000D0070000D00700003C08000004
:100330004008000004000020040000200400002009
:100340000C0000200C0000200C0000200C000020FD
:100350000C2000209D030000D5030000FEE7FEE70F
:10036000FEE7FEE7FEE7FEE7FEE7FEE7FEE7FEE765
:1003700000F002B8FFF7FCBF0F484FF007018843B9
:1003800085460E4880470E48016841F470010160BF
:10039000BFF34F8FBFF36F8FFFF732BF09480A4992
:1003A0000A4A884207D0521A05D0037801300B70F0
:1003B0000131013AF9D1704700000120B104000079
:1003C00088ED00E0D00700000000002000000020C1
:1003D00000F0D8B908B51D481D4C00F0B5F94FF034
:1003E000A0430322C3F86C270C22C3F834274FF034
:1003F0000062C3F80C2544F001044FF0A043D3F889
:1004000010259104FBD44FF000621248C3F80C256C
:1004100000F09AF9104E4FF0A043D3F81025920443
:10042000EBD4D3F80425D14301F0006102F000625F
:10043000C3F808153046C3F80C2500F085F93225BD
:100440004FF47A40A047013DFAD1E4E7D00700001D
:1004500020080000EB070000FF0700004FF080536A
:10046000D3F83001421C04BF4FF0704393F8E00F03
:10047000831F5842584170474FF0704393F8E02F64
:10048000062A09D1D3F8E83FC3F30313033B042B37
:1004900002D8024AD05C704700207047350800003F
:1004A000024AD2F80034002BFBD0704700E0014034
:1004B00010B5FFF7D3FF40B14FF08053944AD3F803
:1004C0002433C3F30423C2F84035FFF7D5FF10B13E
:1004D000904B914A5A67FFF7C1FF48B14FF08053E4
:1004E0004FF08042D3F84432C3F34233C2F83C3574
:1004F000FFF7C2FF30B1894AD2F8FC3023F0807395
:10050000C2F8FC30FFF7AAFF40B14FF08043002251
:10051000C3F80C21C3F81021C3F83825FFF7ACFF4E
:1005200020B14FF080430322C3F8A025FFF7A4FFBA
:1005300060B17B4B0522C3F810260122C3F8882640
:100540000022C3F818263F22C3F814264FF0805328
:10055000D3F83021511C09BF4FF07043D3F8343128
:1005600093F8E02FD3F8E83F08BFC3F30313062A3C
:100570004DD1033B042B03D86A4AD35C002B46D0F1
:100580004FF08052684BD2F80414C3F82015D2F80B
:100590000814C3F82415D2F80C14C3F82815D2F89F
:1005A0001014C3F82C15D2F81414C3F83015D2F86F
:1005B0001814C3F83415D2F81C14C3F84015D2F837
:1005C0002014C3F84415D2F82414C3F84815D2F8FF
:1005D0002814C3F84C15D2F82C14C3F85015D2F8CF
:1005E0003014C3F85415D2F83414C3F86015D2F897
:1005F0003814C3F86415D2F83C14C3F86815D2F85F
:100600004014C3F86C15D2F84424C3F87025FFF7E2
:1006100025FF48B14FF080534FF08042D3F8583255
:1006200003F04F03C2F8E43EFFF718FF48B14FF064
:100630008043D3F80024D20744BF6FF00102C3F80F
:1006400000244FF08053D3F83021062A0ED1D3F87E
:100650003431033B042B02D8344AD35C33B1344ADF
:10066000D2F83C3743F48063C2F83C372B4AD2F8C7
:10067000883043F47003C2F88830BFF34F8FBFF364
:100680006F8F4FF08053D3F83021062A0FD1D3F863
:100690003431033B042B02D8264AD35C3BB14FF0E4
:1006A0001023D3F808224FF08043C3F858254FF0A9
:1006B0001023D3F80022002A03DBD3F80432002BE6
:1006C00022DA1D4901234FF01020C1F8043515240A
:1006D000FFF7E6FEC0F80042FFF7E2FEC0F8044272
:1006E000FFF7DEFE0023C1F80435FFF7D9FEBFF3A4
:1006F0004F8F0A49114BCA6802F4E0621343CB6082
:10070000BFF34F8F00BFFDE70D4B0E4A1A6010BDBF
:100710000030014000C007400DF0ADBA00ED00E030
:10072000005000402608000000C000402B080000D8
:10073000001000403008000000E001400400FA050D
:10074000000000200090D00310B582B0441E00F0DD
:1007500015F803E0FFF73CFE431C08D014F8010F26
:1007600000210028F6D101460A20FFF731FE019052
:1007700000F006F8019802B010BD00BF704700BF3E
:10078000704700BF10B501460446172000F00AF874
:1007900000280CBF20464FF0FF3010BD704700BF4F
:1007A000704700BF70B504460D46074EFFF7F6FFD1
:1007B000064A356044F0800414601368002BFCD1B5
:1007C000FFF7EEFF306870BD080000200400002035
:1007D0006D61696E204170706C69636174696F6EE0
:1007E0002073746172746564200D00427574746FB7
:1007F0006E2050726573736564202121200D0054B2
:10080000686520627574746F6E20776173207265FD
:100810006C6561736564200D00000000000000003D
:100820000338FDD8704700000101010000000101FC
:0C083000000000000101000000000000BA
:04083C000090D00355
:040000030000037581
:00000001FF
