:1000000000000120750300005D0300005F03000095
:1000100061030000630300006503000000000000AE
:100020000000000000000000000000006703000066
:1000300069030000000000006B0300006D03000076
:100040006F0300006F0300006F0300006F030000E8
:100050006F0300006F0300006F0300006F030000D8
:100060006F0300006F0300006F0300006F030000C8
:100070006F0300006F0300006F0300006F030000B8
:100080006F0300006F0300006F0300006F030000A8
:100090006F0300006F0300006F0300006F03000098
:1000A0006F0300006F0300006F0300006F03000088
:1000B0006F0300006F03000000000000000000005C
:1000C0006F0300006F0300006F0300006F03000068
:1000D0006F0300006F0300006F03000000000000CA
:1000E0000000000000000000000000000000000010
:1000F0000000000000000000000000000000000000
:1001000000000000000000000000000000000000EF
:1001100000000000000000000000000000000000DF
:1001200000000000000000000000000000000000CF
:1001300000000000000000000000000000000000BF
:1001400000000000000000000000000000000000AF
:10015000000000000000000000000000000000009F
:10016000000000000000000000000000000000008F
:10017000000000000000000000000000000000007F
:10018000000000000000000000000000000000006F
:10019000000000000000000000000000000000005F
:1001A000000000000000000000000000000000004F
:1001B000000000000000000000000000000000003F
:1001C000000000000000000000000000000000002F
:1001D000000000000000000000000000000000001F
:1001E000000000000000000000000000000000000F
:1001F00000000000000000000000000000000000FF
:10020000354936480A1A02D0072291438D463449AF
:1002100034480A1A06D00722914381F30988022242
:1002200082F3148830483149314A00F044F83148AB
:100230003149324A00F03FF831483249324A00F041
:100240003AF832483249334A00F035F832483349F7
:10025000334A00F030F833483349344A00F02BF881
:1002600033483449344A00F026F8344834490022EF
:1002700000F02CF833483449002200F027F83348C6
:100280003349091A082902DB002202604160314A21
:1002900090471F481F49884205D00268043003B4C4
:1002A000904703BCF7E700208646EC46002000217B
:1002B000294A9047FEE7884207D0521A05D00378B2
:1002C00001300B700131013AF9D17047884202D0F8
:1002D00002700130FAE770470000012000E00020C2
:1002E00000000120000001203C0700000000002069
:1002F00004000020D0030000D00300001407000019
:100300003C0700000000002000000020140700004F
:100310001407000014070000140700001407000071
:100320001407000014070000140700003C07000039
:10033000400700000400002004000020040000200A
:10034000040000200400002004000020040000201D
:10035000042000209D030000D1030000FEE7FEE71B
:10036000FEE7FEE7FEE7FEE7FEE7FEE7FEE7FEE765
:1003700000F002B8FFF7FCBF0F484FF007018843B9
:1003800085460E4880470E48016841F470010160BF
:10039000BFF34F8FBFF36F8FFFF732BF09480A4992
:1003A0000A4A884207D0521A05D0037801300B70F0
:1003B0000131013AF9D17047000001207D040000AD
:1003C00088ED00E01407000000000020000000207D
:1003D0004FF0A044134D032380B545F00105C4F848
:1003E00044374FF40037C4F86C37C4F808756426F6
:1003F0004FF47A40A847013EFAD1C4F80C75642640
:100400004FF47A40A847013EFAD1D4F80435DA43D4
:1004100002F0006203F00063C4F80825C4F80C354C
:10042000E3E700BF200700004FF08053D3F830010E
:10043000421C04BF4FF0704393F8E00F831F5842F3
:10044000584170474FF0704393F8E02F062A09D1C6
:10045000D3F8E83FC3F30313033B042B02D8024A4B
:10046000D05C70470020704735070000024AD2F880
:100470000034002BFBD0704700E0014010B5FFF7BF
:10048000D3FF40B14FF08053944AD3F82433C3F3E1
:100490000423C2F84035FFF7D5FF10B1904B914AC5
:1004A0005A67FFF7C1FF48B14FF080534FF08042C9
:1004B000D3F84432C3F34233C2F83C35FFF7C2FFEE
:1004C00030B1894AD2F8FC3023F08073C2F8FC3096
:1004D000FFF7AAFF40B14FF080430022C3F80C2180
:1004E000C3F81021C3F83825FFF7ACFF20B14FF057
:1004F00080430322C3F8A025FFF7A4FF60B17B4B24
:100500000522C3F810260122C3F888260022C3F86A
:1005100018263F22C3F814264FF08053D3F8302119
:10052000511C09BF4FF07043D3F8343193F8E02FDA
:10053000D3F8E83F08BFC3F30313062A4DD1033BAA
:10054000042B03D86A4AD35C002B46D04FF080526C
:10055000684BD2F80414C3F82015D2F80814C3F875
:100560002415D2F80C14C3F82815D2F81014C3F8C7
:100570002C15D2F81414C3F83015D2F81814C3F897
:100580003415D2F81C14C3F84015D2F82014C3F85F
:100590004415D2F82414C3F84815D2F82814C3F827
:1005A0004C15D2F82C14C3F85015D2F83014C3F8F7
:1005B0005415D2F83414C3F86015D2F83814C3F8BF
:1005C0006415D2F83C14C3F86815D2F84014C3F887
:1005D0006C15D2F84424C3F87025FFF725FF48B105
:1005E0004FF080534FF08042D3F8583203F04F035E
:1005F000C2F8E43EFFF718FF48B14FF08043D3F84C
:100600000024D20744BF6FF00102C3F800244FF06A
:100610008053D3F83021062A0ED1D3F83431033B6E
:10062000042B02D8344AD35C33B1344AD2F83C3775
:1006300043F48063C2F83C372B4AD2F8883043F445
:100640007003C2F88830BFF34F8FBFF36F8F4FF046
:100650008053D3F83021062A0FD1D3F83431033B2D
:10066000042B02D8264AD35C3BB14FF01023D3F8B9
:1006700008224FF08043C3F858254FF01023D3F8D9
:100680000022002A03DBD3F80432002B22DA1D49B2
:1006900001234FF01020C1F804351524FFF7E6FEC2
:1006A000C0F80042FFF7E2FEC0F80442FFF7DEFEAA
:1006B0000023C1F80435FFF7D9FEBFF34F8F0A4975
:1006C000114BCA6802F4E0621343CB60BFF34F8F53
:1006D00000BFFDE70D4B0E4A1A6010BD003001400F
:1006E00000C007400DF0ADBA00ED00E00050004042
:1006F0002607000000C000402B070000001000404B
:100700003007000000E001400400FA05000000206E
:040710000090D00382
:100714000000000000000000000000000338FDD8C5
:100724007047000001010100000001010000000009
:080734000101000000000000BB
:04073C000090D00356
:040000030000037581
:00000001FF
