:1000000000000120750300005D0300005F03000095
:1000100061030000630300006503000000000000AE
:100020000000000000000000000000006703000066
:1000300069030000000000006B0300006D03000076
:100040006F0300006F030000650800006F030000ED
:100050006F0300006F0300006F0300006F030000D8
:100060006F0300006F0300006F0300006F030000C8
:100070006F0300006F0300006F0300006F030000B8
:100080006F0300006F0300006F0300006F030000A8
:100090006F0300006F0300006F0300006F03000098
:1000A0006F0300006F0300006F0300006F03000088
:1000B0006F0300006F03000000000000000000005C
:1000C0006F0300006F0300006F0300006F03000068
:1000D0006F0300006F0300006F03000000000000CA
:1000E0000000000000000000000000000000000010
:1000F0000000000000000000000000000000000000
:1001000000000000000000000000000000000000EF
:1001100000000000000000000000000000000000DF
:1001200000000000000000000000000000000000CF
:1001300000000000000000000000000000000000BF
:1001400000000000000000000000000000000000AF
:10015000000000000000000000000000000000009F
:10016000000000000000000000000000000000008F
:10017000000000000000000000000000000000007F
:10018000000000000000000000000000000000006F
:10019000000000000000000000000000000000005F
:1001A000000000000000000000000000000000004F
:1001B000000000000000000000000000000000003F
:1001C000000000000000000000000000000000002F
:1001D000000000000000000000000000000000001F
:1001E000000000000000000000000000000000000F
:1001F00000000000000000000000000000000000FF
:10020000354936480A1A02D0072291438D463449AF
:1002100034480A1A06D00722914381F30988022242
:1002200082F3148830483149314A00F044F83148AB
:100230003149324A00F03FF831483249324A00F041
:100240003AF832483249334A00F035F832483349F7
:10025000334A00F030F833483349344A00F02BF881
:1002600033483449344A00F026F8344834490022EF
:1002700000F02CF833483449002200F027F83348C6
:100280003349091A082902DB002202604160314A21
:1002900090471F481F49884205D00268043003B4C4
:1002A000904703BCF7E700208646EC46002000217B
:1002B000294A9047FEE7884207D0521A05D00378B2
:1002C00001300B700131013AF9D17047884202D0F8
:1002D00002700130FAE770470000012000E00020C2
:1002E0000000012000000120441600000000002052
:1002F00018000020D0030000D0030000AC1500005F
:10030000441600000000002000000020AC15000092
:10031000AC150000AC150000AC150000AC150000D9
:10032000AC150000AC150000AC1500004416000030
:100330005C160000180000201800002018000020A3
:10034000AC010020AC010020AC010020AC01002079
:10035000AC2100209D030000F5110000FEE7FEE740
:10036000FEE7FEE7FEE7FEE7FEE7FEE7FEE7FEE765
:1003700000F002B8FFF7FCBF0F484FF007018843B9
:1003800085460E4880470E48016841F470010160BF
:10039000BFF34F8FBFF36F8FFFF732BF09480A4992
:1003A0000A4A884207D0521A05D0037801300B70F0
:1003B0000131013AF9D1704700000120D912000043
:1003C00088ED00E0AC1500000000002000000020D7
:1003D000044B1A5C012393404FF0A042C2F80C3545
:1003E000704700BFAC150000044B1A5C012393401A
:1003F0004FF0A042C2F80835704700BFAC150000AE
:1004000008B50020FFF7F0FF0120FFF7EDFF022005
:10041000FFF7EAFFBDE808400320FFF7E5BF08B596
:100420000020FFF7D5FF0120FFF7D2FF0220FFF7E2
:10043000CFFFBDE808400320FFF7CABFC20708B5D9
:1004400001460CD54FF0A0430322C3F84427C3F85C
:100450004827C3F84C27C3F85027FFF7D1FF8B0775
:100460000AD54FF0A0430C22C3F83427C3F838272D
:10047000C3F83C27C3F8402708BD1FB500210390EF
:1004800001AA44F20100CDE9011100F003F805B022
:100490005DF804FB72B6094BD3F8F020D20700D503
:1004A00000BEBFF34F8FD968054A01F4E0610A43EB
:1004B000DA60BFF34F8F00BFFDE700BF00ED00E043
:1004C0000400FA0549B152B1531E1A4007D18260A7
:1004D00001608380C260104670470E20704709207B
:1004E000704710B58468C2688388121B934208D392
:1004F000C26813400268D154C3680133C36000204E
:1005000010BD0420FCE78268C3689A420AD0826862
:10051000838813400268D35C0B7083680133836067
:1005200000207047052070470648074A03780749AE
:10053000D35C012213B1043000F0EEBD0C3000F0AA
:10054000B1BB00BF00000020500000204000002090
:100550000648074A03780749D35C012213B10430E7
:1005600000F08CBD0C3000F04DBB00BF000000203F
:10057000500000204100002037B50578012D0DD036
:10058000022D30D075B91F491F48FFF7BCFF002866
:1005900034D103B0BDE83040FFF7DABF037A1BB9AE
:1005A000FFF7C2FF03B030BD4368184C19782046EE
:1005B000FFF797FF80B18DF800500190144B68460B
:1005C0001B689847A168E368A2885B1A9A42E7D241
:1005D000104B01221A70E5E7A268E3689A42F1D055
:1005E0008DF80000EAE7C3688DF800500193FFF72B
:1005F0009BFF074B68461B689847D3E703238DF89A
:100600000030F6E741000020300000201C000020F0
:10061000180000202C000020F0B51F46234B89B0A5
:1006200004461A600D4600293DD08A882048096892
:10063000FFF748FF002834D1AA89A9681D48FFF7B1
:1006400041FF00282DD11C4E0FCE6D460FC596E8F8
:100650000F0085E80F0063690693237C174A18484A
:100660008DF81C70003B18BF01238DF81430637C9B
:10067000002B14BF0E2300238DF81530E36802937E
:10068000A36803932368019369466368009300F0AD
:10069000ABF830B90B4B18702368013301D0FFF76A
:1006A00043FF09B0F0BD0720FBE700BF18000020A2
:1006B0001C00002030000020B0150000790500006B
:1006C000000000202C00002070B5084D01460848AD
:1006D0002E78FFF718FF044636B100232B70FFF782
:1006E00023FF08B1FFF7C9FE204670BD2C00002093
:1006F0001C00002010B501460E48FFF7F2FE04462C
:10070000A8B90D480D4A0378D35C63B1043000F0FA
:10071000A9FC60B90A490748FFF7F5FE38B9BDE8FA
:100720001040FFF715BF0C3000F060FAF1E72046EB
:1007300010BD00BF3000002000000020500000204D
:100740004100002072B6024A1368013313607047FB
:1007500044000020034A1368013B136003B962B6EA
:10076000704700BF44000020FFF7ECBFFFF7F2BF67
:1007700010B50446C0B2FFF7BDFF204610BD000013
:100780001FB503788DF800304368019383688DF8B6
:100790000830C368054A0393054B684653F8213077
:1007A00052F82110984705B05DF804FB480000207E
:1007B0004C0000201FB503788DF80030436801938A
:1007C00083688DF80830C368054A0393054B684673
:1007D00053F8213052F82110984705B05DF804FB1A
:1007E000480000204C000020F0B5194B90F800C0E4
:1007F00091F81DE043F82C20164B16460A6943F881
:100800002C20154B03F80CE00C4607460FCC89B0A2
:100810006D460FC594E80F0085E80F00CDF810C0B5
:10082000BEF1000F09D0002E0C4A694608BF3246BF
:10083000381D00F055FB09B0F0BD002E084A69468E
:1008400008BF324607F10C0000F01CF9F3E700BFC7
:100850004C000020480000205000002081070000CC
:10086000B5070000014B1B68184700BF540000206B
:1008700038B50B4B98420C4601D0002038BD002003
:10088000FFF772FF074B1D7915B901221C601A7121
:100890000020FFF76BFF002DEFD01120EEE700BF27
:1008A00000200040540000200023435082B04358F1
:1008B0000193019B02B070470A4610B54FF48E7148
:1008C000FFF7F2FF136A9168C95C136A0133136280
:1008D000C0F81C1510BD024608B500684FF49271AF
:1008E000FFF7E2FF10684FF48471FFF7DDFF136834
:1008F00001221A6008BD8B690A4610B54FF4847155
:1009000023B9FFF7D1FFD0F8183510BDFFF7CCFFA2
:10091000536AD168D0F81805C854536A013353623A
:10092000F3E700001FB501238DF80030044BCDE93B
:100930000110D3E900126846904705B05DF804FB4A
:100940005C00002030B54D4DD5F804339A0585B0D4
:1009500051D5D5F82431002B4DD04FF49271284653
:10096000FFF7A2FF4FF40173C5F80833444B93F827
:1009700029200AB901226A60404902228DF800202C
:10098000D1F88024C1F8802403929A690292DA682F
:1009900001920022C3E906226846D3E9001290477B
:1009A0003648D0F81C315BB1354A5169136A994217
:1009B0004DD992F82830002B49D11146FFF77CFF22
:1009C0002E48D0F84431002B56D04FF4A271FFF7D7
:1009D0006BFF2B4B93F829200AB1012202609A6920
:1009E000002A49D0586AD96800229A6105B0BDE84A
:1009F0003040FFF797BFD5F804335B07D0D5D5F863
:100A00000831002BCCD01E4C1C482146FFF773FF49
:100A1000636AA2699A42C3D1E369E1684BB1A361F9
:100A20002369E3600023606AE3616362FFF77AFF92
:100A3000B6E794F829300BB901236B600F4B4FF4E4
:100A40000172C3F808230023606AA361EEE70B4834
:100A50004FF48E71FFF728FF5369002BB0D0516916
:100A60000291002391688DF800300191536168462E
:100A7000D2E900139847A3E705B030BD002000403D
:100A80005C0000202DE9F843534D90F804802C239E
:100A900003FB0853064693F82A300C469146002B78
:100AA00040F096804D490068FFF7E2FE07460028B7
:100AB00040F0908022683068511C0BD04FF0A0416C
:100AC00001239340C1F8083502F5E0734FF0030CA1
:100AD00041F823C061684B1C1FBF01F5E0734FF064
:100AE000A04C4FF0000E4CF823E0A369C0F8243569
:100AF00094F814C0637DBCF1010F4CEA0303C0F805
:100B00006C35C0F81415C0F80C251DD1A268531C13
:100B10001FBF02F5E0734FF0A0414FF0000C41F809
:100B200023C0E368591C0BD04FF0A04C0121994021
:100B3000CCF8081503F5E0714FF0030E4CF821E0F6
:100B4000C0F80835C0F810252C2202FB08F2AB18BB
:100B5000C3F804902369AB50B9F1000F20D04FF4D3
:100B60008E71247FFFF7A0FE4FF4A2713068FFF76B
:100B70009BFE32681A4BC2F80433130B42F3073260
:100B80006101002AC9B21EDB1648841884F80013DC
:100B90000121520903F01F0301FA03F340F8223048
:100BA00033680422C3F800252C2303FB08530022DA
:100BB000C3E9062283F829205A61012283F82A20FA
:100BC0003846BDE8F883084A03F00F03D154E7E73D
:100BD0000827F5E71127F3E75C000020450900002E
:100BE0008000020000E100E014ED00E00279044B17
:100BF0002C2101FB02335869003818BF01207047CF
:100C00005C0000202DE9F84F064690F804808946E4
:100C10009246FFF7EBFF044600283CD1204F2C25DD
:100C200008FB057B4FF48E71CBF814A0CBF808902D
:100C3000CBF820008BF828003068FFF735FE3068CD
:100C4000012383605946FFF737FEDBF804305D4629
:100C50001BBB3068DBF814402B6A9C4211D8336808
:100C6000D3F81C21002AFBD00122DA6000202C23BB
:100C700003FB087700237B61BDE8F88F95F82830E7
:100C80003BB9D0F81C31002BF8D05946FFF714FEC1
:100C9000E2E70F20EBE71120EEE72046ECE700BF8C
:100CA0005C0000202DE9F0473A4D07792C2303FB27
:100CB000075306465C6824B103684FF40170C3F81B
:100CC00008032C2303FB0753986950B1D869002807
:100CD00041D024B133684FF40172C3F804231124C6
:100CE00036E09A61D9605862D8612C2303FB075320
:100CF00093F829301BB910B93046FFF7ECFD4FF0DF
:100D00002C0808FB075A3068DAF80430002B37D17A
:100D10004FF4A271D046FFF7C7FD3068D0F8249198
:100D2000D0F80831D0F84441CBB914B9B9F1000F6B
:100D3000F3D02C2303FB07550023AB61B9F1000F5F
:100D400024D12CBB95F8291033680122B1B11A6067
:100D50002046BDE8F0871961DA610120C5E7B9F1E5
:100D6000000FE6D1002CE4D14146FFF7C4FDDAF8CC
:100D70002430DAF818209A42CFD8DAE75A60E7E749
:100D80004FF40173C0F804330024E1E70324DFE7E4
:100D90000F24DDE75C0000200023435082B043585D
:100DA0000193019B02B070471FB501238DF80030FD
:100DB000044BCDE90110D3E900126846904705B015
:100DC0005DF804FB880000207FB5434AD2F8246117
:100DD000002E60D010464FF49271FFF7DDFF022322
:100DE0008DF80030D2F88034C2F880340393D2F802
:100DF0003C350293394BDA6801920022C3E906229E
:100E00006846D3E9001290473348D0F8443173B1B3
:100E10004FF4A271FFF7C0FF304B9A693AB100223C
:100E2000C3E90622D968D0F83C05FFF7BDFF2A4880
:100E3000D0F82031ABB14FF49071FFF7ADFF012333
:100E4000C360264B5A6962B1D0F84C15029100225A
:100E500099688DF8002001915A616846D3E9001223
:100E600090471D48D0F858319BB14FF4AC71FFF753
:100E700093FF1A4B5A6962B1D0F84C1502910022C7
:100E800099688DF8002001915A616846D3E90012F3
:100E9000904704B070BDD2F81031002BB4D04FF49D
:100EA00088711046FFF778FF0C4BD2F83C05996922
:100EB0008842A9D1DC69D96864B1D2F8005225F022
:100EC0002005C2F800521A699C61DA60DE61FFF702
:100ED0006BFF99E79C61FAE7002000408800002042
:100EE0002DE9F8435A4E90F80480242303FB08634D
:100EF000044693F820300D469146002B40F0A38025
:100F000054490068FFF7B4FC0746002840F09D8074
:100F10002A682068511C0BD04FF0A0410123934058
:100F2000C1F8083502F5E0734FF0030C41F823C017
:100F300069684B1C1FBF01F5E0734FF0A04C4FF0E8
:100F4000000E4CF823E0AB69C0F8243595F814C0C6
:100F50006B7DBCF1010F4CEA0303C0F86C35C0F89F
:100F60000C25C0F814151DD1AA68531C1FBF02F52B
:100F7000E0734FF0A0414FF0000C41F823C0EB6844
:100F8000591C0BD04FF0A04C01219940CCF808150A
:100F900003F5E0714FF0030E4CF821E0C0F808357E
:100FA000C0F81025242202FB08F2B318C3F80490FD
:100FB0002B69B350B9F1000F2FD04FF488712A7FFD
:100FC000FFF7EAFE20684FF49071FFF7E5FE206816
:100FD0004FF49271FFF7E0FE20684FF4A271FFF723
:100FE000DBFE4FF4AC712068FFF7D6FE23681A4988
:100FF000C3F80413190B43F307335201002BD2B289
:101000001CDB1648C51885F8002301225B0901F096
:101010001F0102FA01F140F8231023680822C3F8E7
:101020000025242303FB08660023C6E90633736109
:10103000012386F820303846BDE8F883084B01F0DC
:101040000F015A54E9E70827F5E71127F3E700BF36
:1010500088000020C90D00001003420000E100E0FC
:1010600014ED00E00279044B242101FB023358699E
:10107000003818BF012070478800002001F060434D
:10108000B3F1005F2DE9F0470646884692463BD112
:1010900090F80490FFF7E6FF0446002836D11D4F74
:1010A0003068242505FB09754FF49071C5F814A02C
:1010B000C5F80880FFF770FE4FF4AC713068FFF799
:1010C0006BFE33686A69A968C3F84415C3F84825FC
:1010D00001229A606A68DAB9D3F82021D3F858015E
:1010E0001AB90028F8D00F2007E00028FBD1012210
:1010F000DA60D3F85821002AFBD0242303FB0977B8
:1011000000237B61BDE8F0871020FBE71120F9E7A1
:101110002046F7E788000020F8B501F06043B3F1FE
:10112000005F04460F465ED10379304D242101FB58
:101130000351496821B100684FF40476C0F8086390
:10114000242000FB03539E6956B1D869002839D08A
:1011500021B123684FF40472C3F80423112030E056
:101160009A61DF60DE6120684FF48871FFF714FE3A
:1011700020684FF4A271FFF70FFE2368C3F834759F
:10118000C3F8382516BB01221A602479242202FBF9
:10119000045252680ABBD3F81011D3F84421D3F893
:1011A0002401114302D10028F5D00A46242303FB71
:1011B00004550023984218BF03209A42AB6118BF20
:1011C0000F20F8BD1F61DA610126CCE7D3F80022B9
:1011D00042F02002C3F80022D7E74FF40472C3F8AC
:1011E00004230020EDE71020EBE700BF880000207B
:1011F0007047000030B51C4D8BB00120FFF71EF981
:101200000FCD04AC0FC495E80300184B184A0093A7
:10121000802384E80300CDE902230193154A0723C4
:10122000694604A8FFF7F8F908B1FFF726F9124854
:10123000124D134C00F09CF96846FFF745FA002860
:10124000FAD19DF80030742B04D1FFF7E8F8284656
:1012500000F08EF99DF800306B2BEDD1FFF7D0F840
:10126000204600F085F9E7E718160000AC000020E2
:101270002C010020F1110000D0150000EF15000036
:10128000011600004FF08053D3F83001421C04BF18
:101290004FF0704393F8E00F831F58425841704756
:1012A0004FF0704393F8E02F062A09D1D3F8E83FB6
:1012B000C3F30313033B042B02D8024AD05C7047EC
:1012C000002070473F160000024AD2F80034002B7D
:1012D000FBD0704700E0014010B5FFF7D3FF40B1ED
:1012E0004FF08053944AD3F82433C3F30423C2F855
:1012F0004035FFF7D5FF10B1904B914A5A67FFF781
:10130000C1FF48B14FF080534FF08042D3F84432D0
:10131000C3F34233C2F83C35FFF7C2FF30B1894A0C
:10132000D2F8FC3023F08073C2F8FC30FFF7AAFF3C
:1013300040B14FF080430022C3F80C21C3F81021C4
:10134000C3F83825FFF7ACFF20B14FF080430322EC
:10135000C3F8A025FFF7A4FF60B17B4B0522C3F8BB
:1013600010260122C3F888260022C3F818263F223F
:10137000C3F814264FF08053D3F83021511C09BF15
:101380004FF07043D3F8343193F8E02FD3F8E83FAF
:1013900008BFC3F30313062A4DD1033B042B03D824
:1013A0006A4AD35C002B46D04FF08052684BD2F88B
:1013B0000414C3F82015D2F80814C3F82415D2F881
:1013C0000C14C3F82815D2F81014C3F82C15D2F851
:1013D0001414C3F83015D2F81814C3F83415D2F821
:1013E0001C14C3F84015D2F82014C3F84415D2F8E1
:1013F0002414C3F84815D2F82814C3F84C15D2F8B1
:101400002C14C3F85015D2F83014C3F85415D2F880
:101410003414C3F86015D2F83814C3F86415D2F840
:101420003C14C3F86815D2F84014C3F86C15D2F810
:101430004424C3F87025FFF725FF48B14FF08053CF
:101440004FF08042D3F8583203F04F03C2F8E43E25
:10145000FFF718FF48B14FF08043D3F80024D207BC
:1014600044BF6FF00102C3F800244FF08053D3F85B
:101470003021062A0ED1D3F83431033B042B02D895
:10148000344AD35C33B1344AD2F83C3743F48063F6
:10149000C2F83C372B4AD2F8883043F47003C2F8C4
:1014A0008830BFF34F8FBFF36F8F4FF08053D3F867
:1014B0003021062A0FD1D3F83431033B042B02D854
:1014C000264AD35C3BB14FF01023D3F808224FF0EB
:1014D0008043C3F858254FF01023D3F80022002A88
:1014E00003DBD3F80432002B22DA1D4901234FF02D
:1014F0001020C1F804351524FFF7E6FEC0F80042BD
:10150000FFF7E2FEC0F80442FFF7DEFE0023C1F859
:101510000435FFF7D9FEBFF34F8F0A49114BCA6854
:1015200002F4E0621343CB60BFF34F8F00BFFDE7CF
:101530000D4B0E4A1A6010BD0030014000C007403C
:101540000DF0ADBA00ED00E0005000403016000094
:1015500000C0004035160000001000403A160000A0
:1015600000E001400400FA05140000200090D003C0
:1015700010B582B0441E00F015F803E0FFF7F8F84C
:10158000431C08D014F8010F00210028F6D10146B1
:101590000A20FFF7EDF8019000F006F8019802B07C
:0C15A00010BD00BF704700BF704700BFC7
:1015AC0011121314FFFFFFFFFFFFFFFFFFFFFFFFF1
:1015BC00FFFFFFFF00000000000000000000D6014C
:1015CC000601000048656C6C6F2050432066726FFA
:1015DC006D206E6F72646963204465766963652162
:1015EC00210D004C656473205475726E6564204F38
:1015FC006E21210D004C656473205475726E656408
:10160C00206F66662121200D0000000008000000FC
:10161C0006000000050000000700000000000000AC
:10162C0000E0D701000001010100000001010000F1
:08163C000000010100000000A4
:1016440000000000002000400000000000200040D6
:08165400000000000090D0032B
:040000030000037581
:00000001FF
